:100000000C942A000C943C000C943C000C943C0092
:100010000C943C000C943C000C943C000C943C0070
:100020000C943C000C943C000C943C000C9490020A
:100030000C943C000C943C000C943C000C943C0050
:100040000C943C000C943C000C943C000C943C0040
:100050000C943C0011241FBECFE5D8E0DEBFCDBF1D
:1000600010E0A0E6B0E001C01D92A236B107E1F7B2
:100070000E94E5020C940C030C940000DF93CF93D4
:1000800000D00F92CDB7DEB789838981282F30E069
:100090003B832A838A819B818430910509F40FC1B7
:1000A0002A813B8125303105ECF48A819B818130A6
:1000B000910509F46EC02A813B81223031052CF470
:1000C0008A819B81009799F125C22A813B81223048
:1000D000310509F490C08A819B818330910509F430
:1000E000BCC018C22A813B812730310509F47DC18B
:1000F0008A819B81883091056CF42A813B8125306F
:10010000310509F40EC18A819B818630910509F47D
:100110003AC100C22A813B812830310509F497C1D8
:100120008A819B818930910509F4C3C1F3C1ABE396
:10013000B0E0EBE3F0E0808182608C93ABE3B0E071
:10014000EBE3F0E0808184608C93ABE3B0E0EBE321
:10015000F0E0808188608C93ABE3B0E0EBE3F0E00B
:10016000808180618C93ABE3B0E0EBE3F0E08081D1
:1001700080628C93ABE3B0E0EBE3F0E080818064DD
:100180008C93ABE3B0E0EBE3F0E080818F778C936E
:10019000C1C1ABE3B0E0EBE3F0E080818D7F8C93F5
:1001A000ABE3B0E0EBE3F0E0808184608C93ABE301
:1001B000B0E0EBE3F0E0808188608C93ABE3B0E0EB
:1001C000EBE3F0E080818F7E8C93ABE3B0E0EBE378
:1001D000F0E080818F7D8C93ABE3B0E0EBE3F0E067
:1001E00080818F7B8C93ABE3B0E0EBE3F0E0808128
:1001F0008F778C938FC1ABE3B0E0EBE3F0E08081CD
:1002000082608C93ABE3B0E0EBE3F0E0808184604C
:100210008C93ABE3B0E0EBE3F0E08081877F8C93DD
:10022000ABE3B0E0EBE3F0E0808180618C93ABE383
:10023000B0E0EBE3F0E0808180628C93ABE3B0E070
:10024000EBE3F0E080818F7B8C93ABE3B0E0EBE3FA
:10025000F0E0808180688C935DC1ABE3B0E0EBE3BC
:10026000F0E0808182608C93ABE3B0E0EBE3F0E000
:10027000808184608C93ABE3B0E0EBE3F0E08081BD
:1002800088608C93ABE3B0E0EBE3F0E080818061C9
:100290008C93ABE3B0E0EBE3F0E080818F7D8C9357
:1002A000ABE3B0E0EBE3F0E080818F7B8C93ABE3DA
:1002B000B0E0EBE3F0E0808180688C932BC1ABE38E
:1002C000B0E0EBE3F0E080818D7F8C93ABE3B0E0B6
:1002D000EBE3F0E0808184608C93ABE3B0E0EBE390
:1002E000F0E0808188608C93ABE3B0E0EBE3F0E07A
:1002F00080818F7E8C93ABE3B0E0EBE3F0E0808114
:100300008F7D8C93ABE3B0E0EBE3F0E08081806421
:100310008C93ABE3B0E0EBE3F0E0808180688C93FA
:10032000F9C0ABE3B0E0EBE3F0E0808182608C9356
:10033000ABE3B0E0EBE3F0E080818B7F8C93ABE349
:10034000B0E0EBE3F0E0808188608C93ABE3B0E059
:10035000EBE3F0E0808180618C93ABE3B0E0EBE312
:10036000F0E080818F7D8C93ABE3B0E0EBE3F0E0D5
:10037000808180648C93ABE3B0E0EBE3F0E08081BC
:1003800080688C93C7C0ABE3B0E0EBE3F0E0808122
:1003900082608C93ABE3B0E0EBE3F0E080818B7F95
:1003A0008C93ABE3B0E0EBE3F0E0808188608C936A
:1003B000ABE3B0E0EBE3F0E0808180618C93ABE3F2
:1003C000B0E0EBE3F0E0808180628C93ABE3B0E0DF
:1003D000EBE3F0E0808180648C93ABE3B0E0EBE38F
:1003E000F0E0808180688C9395C0ABE3B0E0EBE3F4
:1003F000F0E0808182608C93ABE3B0E0EBE3F0E06F
:10040000808184608C93ABE3B0E0EBE3F0E080812B
:1004100088608C93ABE3B0E0EBE3F0E080818F7E0B
:100420008C93ABE3B0E0EBE3F0E080818F7D8C93C5
:10043000ABE3B0E0EBE3F0E080818F7B8C93ABE348
:10044000B0E0EBE3F0E080818F778C9363C0ABE3A7
:10045000B0E0EBE3F0E0808182608C93ABE3B0E04E
:10046000EBE3F0E0808184608C93ABE3B0E0EBE3FE
:10047000F0E0808188608C93ABE3B0E0EBE3F0E0E8
:10048000808180618C93ABE3B0E0EBE3F0E08081AE
:1004900080628C93ABE3B0E0EBE3F0E080818064BA
:1004A0008C93ABE3B0E0EBE3F0E0808180688C9369
:1004B00031C0ABE3B0E0EBE3F0E0808182608C938D
:1004C000ABE3B0E0EBE3F0E0808184608C93ABE3DE
:1004D000B0E0EBE3F0E0808188608C93ABE3B0E0C8
:1004E000EBE3F0E080818F7E8C93ABE3B0E0EBE355
:1004F000F0E080818F7D8C93ABE3B0E0EBE3F0E044
:10050000808180648C93ABE3B0E0EBE3F0E080812A
:1005100080688C930F900F900F90CF91DF9108958A
:100520001F920F920FB60F9211242F933F934F9368
:100530005F936F937F938F939F93AF93BF93EF934B
:10054000FF93DF93CF93CDB7DEB7809160008F5FCD
:1005500080936000809160008A3F91F480916100F7
:10056000893019F41092610005C0809161008F5F9D
:1005700080936100809161000E943E0010926000B3
:10058000CF91DF91FF91EF91BF91AF919F918F91AB
:100590007F916F915F914F913F912F910F900FBE7F
:1005A0000F901F901895DF93CF93CDB7DEB7E2E59C
:1005B000F0E01082E9E5F0E081E08083E3E5F0E03F
:1005C00084E88083CF91DF910895DF93CF93CDB7F7
:1005D000DEB7AFE5B0E0EFE5F0E0808180688C93B6
:1005E000AAE3B0E0EAE3F0E080818E6F8C93A4E3AD
:1005F000B0E0E4E3F0E0808180648C93A5E3B0E0B8
:10060000E5E3F0E0808180648C93809161000E943A
:0C0610003E000E94D302FFCFF894FFCF01
:00000001FF
