:100000000C942A000C9434000C9434000C943400AA
:100010000C9434000C9434000C9434000C94340090
:100020000C9434000C9434000C9434000C94340080
:100030000C9434000C9434000C9434000C94340070
:100040000C9434000C9434000C9434000C94340060
:100050000C94340011241FBECFE5D8E0DEBFCDBF25
:100060000E9436000C9468000C940000DF93CF933C
:10007000CDB7DEB7A1E3B0E0E1E3F0E080818B7FB4
:100080008C93A4E3B0E0E4E3F0E0808182608C93A1
:10009000A5E3B0E0E5E3F0E080818D7F8C93E0E3C1
:1000A000F0E08081882F90E084709070009741F498
:1000B000A5E3B0E0E5E3F0E0808182608C93EFCFD0
:1000C000A5E3B0E0E5E3F0E080818D7F8C93E7CF9E
:0400D000F894FFCFD2
:00000001FF
